:020000040800F2
:100000001022002059020008AD260008ED22000849
:10001000B52500080D0400087D2E00080000000032
:100020000000000000000000000000009D0100082A
:100030009B04000800000000F1010008BD28000832
:1000400073020008730200087302000873020008BC
:1000500073020008730200087302000873020008AC
:1000600073020008730200087302000821040008EC
:1000700073020008730200082D04000845040008FC
:10008000730200087302000873020008730200087C
:10009000730200087302000873020008730200086C
:1000A00073020008B12900087302000873020008F7
:1000B00073020008730200080000000073020008C9
:1000C0007302000800000000000000007302000836
:1000D00000000000730200087302000873020008A9
:1000E0007302000873020008000000000000000016
:1000F0000000000000000000000000000000000000
:1001000000000000000000000000000000000000EF
:1001100000000000000000007302000873020008E5
:1001200000000000000000000000000000000000CF
:1001300000000000000000000000000000000000BF
:100140007302000873020008000000007302000838
:1001500073020008730200087302000873020008AB
:100160007302000873020008000000000000000095
:10017000000000000000000000000000000000007F
:100180000000000073020008DFF80CD000F09AF8BD
:1001900000480047A92E0008102200202B4B1968A8
:1001A0000868B0E8F04F80F30988BFF36F8F4FF015
:1001B000000080F3118870470000000006480068C6
:1001C000006880F3088862B661B6BFF34F8FBFF353
:1001D0006F8F00DF00BF00BF08ED00E0DFF80C000C
:1001E000016841F470010160704700BF88ED00E0D4
:1001F000EFF30980BFF36F8F144B1A681EF0100FD6
:1002000008BF20ED108A20E9F04F106008B44FF0CD
:10021000500080F31188BFF34F8FBFF36F8F03F04F
:100220000DFD4FF0000080F3118808BC19680868C4
:10023000B0E8F04F1EF0100F08BFB0EC108A80F34A
:100240000988BFF36F8F704700BF00BF40000020D8
:10025000EFF30580704700000648804706480047D6
:10026000FEE7FEE7FEE7FEE7FEE7FEE7FEE7FEE766
:10027000FEE7FEE7492900088901000840EA01037A
:100280009B0703D009E008C9121F08C0042AFAD24C
:1002900003E011F8013B00F8013B521EF9D2704710
:1002A000D2B201E000F8012B491EFBD270470022B8
:1002B000F6E710B513460A4604461946FFF7F0FF65
:1002C000204610BD064C074D06E0E06840F00103F3
:1002D00094E8070098471034AC42F6D3FFF758FF74
:1002E00050480008704800080146406A426C12F00D
:1002F000500F03D0C06B026B08461047416C41F4AD
:10030000007141640168C96811F4406F0CD1C16982
:1003100051B9416C21F480714164416CC90403D42A
:10032000416C41F00101416400F0ECBA406A416C5B
:1003300041F040014164816C41F00401816400F0AE
:10034000FCBA406A00F0F8BA70B5044600688168EB
:1003500001F00301012926D10168C90723D0816872
:1003600001F00D01012910D1816841F00201816085
:1003700021680320086000F043FF05460FE000BF3E
:1003800000F03EFF401B022809D9606C40F01000CD
:100390006064A06C40F00100A064012070BD206882
:1003A0008068C007ECD1002070BD000070B5044625
:1003B0000068816801F00301012902D10168C907C1
:1003C00020D18168104A11420DD1816841F00101AC
:1003D000816000F015FF05460FE000BF00F010FF40
:1003E000401B022809D9606C40F010006064A06CCA
:1003F00040F00100A064012070BD20680068C04387
:10040000C007EBD1002070BD3F000080FEE701F087
:100410006EBF012002F07AF9012002F00DFEF8E72C
:10042000014800F074BD00006005002010B50448CC
:1004300000F06DFD0249012081F8210010BD00008F
:10044000E8050020014800F062BD0000A40500207E
:10045000054A016811441422B1FBF2F189000164DC
:100460000249C16370470000F8FFFDBF0000024071
:1004700030B590F840500124AC40C56B6C60046806
:1004800063604368102B036803D099600068C26002
:1004900030BD9A600068C16030BD70477047000091
:1004A00070B50A4909684968094D49426A68891A5C
:1004B00001F07F04074911442246FFF7DFFE297946
:1004C0002046014401F07F01696070BDA405002051
:1004D000240000200003002070B5026800234FF0C4
:1004E000A04495B0A24200D1304C009490F8404016
:1004F000012C1ED0012480F84040926852074BD452
:10050000009A9268520747D4294A0D6840F61F7432
:100510003DB39568466B25F4604545EA46354E681F
:10052000354395600568AE6806F00306012E06D1D6
:1005300002E0022015B070BD2D68ED0731D1009D9D
:10054000AD6805F00305012D03D1009D2D68ED0771
:1005500027D10D6889680D439168A1430D439560CB
:100560001FE0916821F46041916001688D6805F099
:100570000305012D02D10968C90712D100998968C4
:1005800001F00301012903D100990968C90708D1C5
:100590009168A143916004E0416C41F02001416405
:1005A0000123002180F840101846C3E700010050E5
:1005B00000030050F0B595B00025009590F840205C
:1005C0002E46012A19D0012780F8407003689A68E6
:1005D00052077CD44A681F24052A11D2D3F830C0B0
:1005E00002EB4202520094402CEA040C0C68944046
:1005F0004CEA040CC3F830C035E0022015B0F0BD61
:100600000A2A0FD2D3F834C0521F02EB4202520022
:1006100094402CEA040C0C6894404CEA040CC3F897
:1006200034C020E00F2A0FD2D3F838C00A3A02EBC8
:100630004202520094402CEA040C0C6894404CEAAC
:10064000040CC3F838C00EE0D3F83CC00F3A02EBFC
:100650004202520094402CEA040C0C6894404CEA8C
:10066000040CC3F83CC00268936813F00C0F4FF001
:10067000070374D1D1F800E0BEF10A0F10D39469DA
:10068000AEF10A0E0EEB4E0C03FA0CFE24EA0E0439
:10069000D1F808E00EFA0CFE44EA0E0494610FE073
:1006A000D2F814C00EEB4E0403FA04FE2CEA0E0C32
:1006B000D1F808E00EFA04FE4CEA0E0CC2F814C0A1
:1006C00002684C69D2F80CC0CCF3C10C00E0E1E048
:1006D0004FEA4C0C04FA0CF4D1F810E0DFF810C229
:1006E000BEF1010F42D0BEF1020F4DD0BEF1030F9B
:1006F00058D0BEF1040F63D0146E91F800C004F01E
:10070000F844B4EB8C6F03D1146E24F000441466EB
:100710000268546E91F800C004F0F844B4EB8C6F9A
:1007200003D1546E24F0004454660268946E91F82C
:1007300000C004F0F844B4EB8C6F03D1946E24F045
:10074000004494660268D46E91F800C004F0F84446
:10075000B4EB8C6F03D1D46E24F00044D4660268ED
:10076000946804F00304012C3AD136E0D2F860E03A
:100770000EEA0C0E91F800C044EA8C644EEA040EB6
:100780004EF000441466EAE7D2F864E00EEA0C0E7C
:1007900091F800C044EA8C644EEA040E4EF0004426
:1007A0005466DCE7D2F868E00EEA0C0E91F800C05F
:1007B00044EA8C644EEA040E4EF000449466CEE7A0
:1007C000D2F86CE00EEA0C0E91F800C044EA8C649A
:1007D0004EEA040E4EF00044C0E71468E4075ED110
:1007E000CC68012C06D052F8B03F0C78A740BB4330
:1007F000136020E052F8B04F91F800C007FA0CF7F0
:100800003C4314600A6804680A2A0AD3A769093AB3
:1008100002EB420293409F438B6893401F43A761C2
:1008200009E06769521C02EB420293409F438B68C8
:1008300093401F43676109682E4A102904D011298B
:1008400005D0122906D02AE093681B0204E09368C1
:10085000DB0101E093685B02002B20DB03684FF0B3
:10086000A044A34202D1244F009700E000949F6867
:1008700007F00307012F02D11F68FF070AD1009F6D
:100880008FB1BF6807F00307012F0CD1009F3F68AD
:10089000FF0708D0416C41F020014164012580F838
:1008A00040602846AAE6102908D011291AD012293A
:1008B000F5D1916841F480019160F0E7A342EED157
:1008C000916841F4000191600C490D4A0968B1FB3F
:1008D000F2F101EB8101490000E0491E009100297D
:1008E000FBD1DCE7A342DAD1916841F08071E3E704
:1008F00000F0FF8300030050000100503C00002086
:1009000040420F0009480A4902680A6042684A608A
:1009100082688A60C368CB60006908614CF64060F9
:1009200004494243100C08807047000080030020F7
:100930006C0600202000002070477047F0B54FF093
:10094000000595B004002F462E46009505D0606C3A
:10095000C00649D4606C18B134E0012015B0F0BD78
:10096000A6642665E66484F84060204600F0D6F868
:1009700020688068C00025D42046FFF7E5FC0546C6
:10098000606C00F0100129431CD1606C20F4885089
:1009900040F0020060642068816821F0405181606D
:1009A0002068816841F0805181605648564900684E
:1009B000B0FBF1F000EB8000400000E0401E009032
:1009C0000028FBD120688168C90002D580688000BA
:1009D0000AD5606C20F0020040F010006064A06C4A
:1009E00040F00100A0640125606C00F01000284375
:1009F0007FD12068816849077BD4616C21F48071C4
:100A000041F00201616441494FF0A042904200D19F
:100A10003F4A0092826802F00302012A02D1006874
:100A2000C00710D1009840B1806800F00300012891
:100A300003D100980068C00705D18868626820F477
:100A4000403010438860D4E902100843A16B0129AB
:100A500002D04FF4805200E00022E16942EA4132C4
:100A60001043626A3843012A0AD1A9B1616C21F0AE
:100A7000020141F020016164A16C41F00101A16417
:100A8000E16A012902D0226B1143084321688A6878
:100A900012F00C0F08D012E0218D1E4A02EB4141EA
:100AA000014341F48030EBE7CA6844F202039A4301
:100AB000CA60A169626B890341EA42010843216867
:100AC000CA68154B1A400243CA6020690128206891
:100AD000016B21F00F0102D1226A521E1143016302
:100AE000A664606C20F0020040F00100606407E042
:100AF000FFE7606C20F0020040F010006064012508
:100B000028462BE73C00002040420F000003005025
:100B1000000100500000FEFF07C0F0FF70B586B076
:100B2000054614216846FFF7C2FB2868B0F1A04FC4
:100B300032D11A49486940F080504861486900F054
:100B400080500590486940F40030486148690026AB
:100B500000F4003005900F2000900320CDE901063D
:100B600069464FF0904000F085FA0E4C0C48C4E9FD
:100B700000068020C4E9026080002061800060617E
:100B80002020A0610002E061204600F014FA08B1C4
:100B9000FFF784FCEC63656206B070BD0010024094
:100BA00008000240600500202DE9F0470446006877
:100BB00090468946806840076ED494F8400001282A
:100BC0000CD001204FF0A04684F84000D6F808036E
:100BD0004FF00007C00604D0012507E00220BDE861
:100BE000F0872046FFF7E2FB050002D084F8407052
:100BF00053E0606C40F60161884340F480706064AB
:100C0000D6F80803C00602D02068B04206D1606C56
:100C100020F4801060642068C06807E0616C41F4D3
:100C2000801161641E49884208D1F068800105D5B1
:100C3000606C20F4005040F480506064606CC0042C
:100C400004D5A06C20F00600A06400E0A76484F83E
:100C50004070E16B13488862E16B1348C862E16B36
:100C60001248086321681C2008602068416841F030
:100C7000100141602068C16841F00101C160216834
:100C800043464A464031E06B00F0BCF92068816879
:100C900041F00401816000E0022528469FE7000042
:100CA00000010050E9020008430300082D0300087A
:100CB00030B51F235FF0010505FA03F40C4201D1A2
:100CC0005B1EF9D27AB1082A09D0102A04D0182A5A
:100CD00009D1072B05D206E0082B02D203E0102B26
:100CE00001D3012030BD036859610068816821F09B
:100CF000180111438160002030BD000010B50400D0
:100D000010D0607F20B900202077204600F030F816
:100D100002206077207938B1D4E902122046FFF72B
:100D2000C7FF48B1012010BD216810484861206804
:100D3000816821F0180181606079A0B12069216883
:100D4000086120688168626921F060011143816057
:100D500020688168A26921F080011143816001202F
:100D60006077002010BD4FF0FF30E8E7B71DC104E9
:100D700008B500680649884208D10648416941F033
:100D800040014161406900F04000009008BD000052
:100D90000030024000100240F0B54379134F05685F
:100DA000012B1CD001264671022303712C6840F6EA
:100DB000FE73BD4200D1A2B193409C430B68896889
:100DC0000B43934023432B6001680B68C02494407D
:100DD000A3430B600671002141710846F0BD02205B
:100DE000F0BD9C43D1E90031EAE700000074004007
:100DF00070B5040003D02079002510B105E0012072
:100E000070BD6571204600F007F802202071256151
:100E100001202071002070BD30B587B00446142138
:100E20006846FFF744FA24681A4D00221A49032342
:100E30004FF09040AC4211D1CC6944F00054CC61E9
:100E4000CC6904F0005405944C6944F400344C61BE
:100E5000496901F400310591102113E00F4DAC42B6
:100E600016D1CC6944F08064CC61CC6904F0806414
:100E700005944C6944F400344C61496901F4003133
:100E800005914021CDE900130292694600F0F2F885
:100E900007B030BD007400400010024000980040D0
:100EA00018B5046800940068104421B11430009013
:100EB0000360002018BD0830F9E730B54279012AF7
:100EC00012D0012242710223037103681D6802FAE5
:100ED00001F425431D60002901680B6806D0C3F3A7
:100EE00083430F2B0AD00DE0022030BDC3F38303F0
:100EF0000F2B07D14B6843F0010302E04B6843F02E
:100F000002034B60027100214171084630BDF0B40C
:100F1000C16B0D6801680C68066C042202FA06F3C6
:100F20002B420FD063070DD50B689B0603D40B68CB
:100F300023F004030B6090F840108A40C16B4A60B4
:100F4000C16A1BE0022303FA06F72F424FF0000CA0
:100F50004FF0010216D0A70714D50C68A40605D4DB
:100F60000C6824F00A040C6080F8212090F84010EE
:100F70008B40C16B4B6080F820C0816A002918D07B
:100F8000F0BC08470823B3402B4212D0230710D5EA
:100F90000B6823F00E030B6090F84010C36B02FA4D
:100FA00001F15960826380F8212080F820C0016B34
:100FB000E4E7F0BC704770B5040021D0022084F84B
:100FC00021002268116843F6F0708143D4E90103DF
:100FD0001843D4E903352B43184363691843A369C5
:100FE0001843E3691843084310602046FFF730FABE
:100FF0000020A063012184F8211084F8200070BD36
:10100000012070BD70B5044690F82000002501282D
:101010000CD0012084F8200094F821600020012EDB
:1010200006D084F820000225284670BD022070BD3D
:10103000022684F82160A0632068066826F0010675
:1010400006602046FFF714FAE06A0028206801686D
:1010500002D041F00E0106E041F00A010160206873
:10106000016821F0040101602068016841F001017C
:101070000160D9E72DE9F84FDFF860B100234FF0A8
:10108000010C4FF0030A4FF00F090BF1040E9DE025
:101090000CFA03F6344022007ED04C68022C01D0BA
:1010A000122C0ED1DC0800EB8408D8F820405D0734
:1010B000EF0E09FA07F5AC430D69BD402543C8F8AA
:1010C000205007685D0091F804800AFA05F408F0E2
:1010D0000308A74308FA05F848EA0708C0F80080A3
:1010E0004F68012F05D0022F03D0112F01D0122FEE
:1010F00011D18768D1F80C80A74308FA05F848EAAF
:101100000708C0F808804768B7430E79C6F3001691
:101110009E403E434660C668A6438C68AC4034435C
:10112000C4604C68E40050D52D4CA56945F001051C
:10113000A561A46923F0030504F001040094294C7F
:101140002E19B4689D072F0F09FA07F5AC43B0F1CB
:10115000904F04D0244DA84203D101250CE0002576
:101160000AE0224DA84201D1022505E0204DA84207
:1011700001D1032500E00525BD402543B560DBF81E
:1011800000405D464E689443F60300D514432C603E
:101190007546DEF8004000E017E04E689443B60361
:1011A00000D514432C600D4D08352C684E689443CF
:1011B000F60200D514432C60084D0C352C684E689F
:1011C0009443B60200D514432C605B1C0A68144695
:1011D000DA407FF45DAFBDE8F88F00000004014005
:1011E00000100240000001400004004800080048D0
:1011F000000C00480AB181617047816270470000AD
:101200000148806870470000300000200248816873
:10121000027811448160704730000020074810B503
:10122000016841F010010160032000F089F80020FE
:1012300000F006F800F03EF8002010BD002002404B
:1012400000B5014687B00022192000F059F8192096
:1012500000F04AF81348816941F4006181618069B6
:1012600005A900F400600690684600F0E1F900F07E
:1012700017FA0D490D4AB0FBF1F10D48491E026005
:10128000416040F2E7320021C0E90321816000F0B3
:1012900043FD10B1012007B000BD054800F091FDED
:1012A000F9E700000010024040420F00002C01400E
:1012B0002C0600200B4882B0816941F00101816158
:1012C000816901F001010091C16941F08051C16162
:1012D000C069002200F0805000900F21901E02B0E3
:1012E00000F00EB80010024000F01F0201219140F2
:1012F0004009800000F1E020C0F8001170470000B4
:10130000F0B40E4B1B680C46C3F30223C3F1070570
:10131000042D00D90425191D072901D2002300E05E
:10132000DB1E012606FA05F1491E214099409E4028
:10133000761E16403143F0BC01F0B9B90CED00E067
:10134000064900F0070208684FF6FF03184040EA1C
:101350000220034A10430860704700000CED00E0D3
:101360000000FA052DE9F84F044600685C4DC00303
:101370006FD5E8690026C00008D4E86940F08050C5
:10138000E861E869012600F0805000905548016846
:10139000C90512D40168804641F480710160FFF7ED
:1013A0002FFF074605E000BFFFF72AFFC01B642898
:1013B00035D8D8F80000C005F6D5286A10F440707A
:1013C00053D0A18801F4407181424ED0286A4FF475
:1013D000803191FAA1F2B2FA82F29700424A4FF0BC
:1013E0000108174420F44070C7F8008491FAA1F175
:1013F000B1FA81F102EB81010023C1F800342862C7
:10140000C00732D0FFF7FCFE074641F2883A4FF0A2
:10141000020907E0FFF7F4FEC11B514502D9032082
:10142000BDE8F88F99FAA9F1B1FA81F141F04001D4
:101430004846B8EB511F01D129680CE090FAA0F1A1
:10144000B1FA81F141F04001B0EB511F02D1296A9C
:1014500001E015E0696A99FAA9F0B0FA80F000F0AD
:101460001F0008FA00F21142D4D0286A616820F403
:101470004070084328621EB1E86920F08050E8619E
:101480002078C00705D0286BA16820F0030008432E
:1014900028632078800605D5286BE16820F01000CD
:1014A000084328632078000605D5E86A216920F4FE
:1014B000F8700843E8622088C00405D5286B61698C
:1014C00020F48070084328632088400405D5286BE9
:1014D000A16920F48050084328630020A0E70000A1
:1014E0000010024000700040000042422DE9F04729
:1014F0000F46050069D04A4E306800F00700B84238
:1015000009D2306820F0070038433060306800F0BE
:101510000700B84259D12878424C800705D5606849
:10152000A96820F0F000084360602878C0073DD02B
:101530006968012001290DD0022923D05FF0020340
:1015400093FAA3F2B2FA82F242F02002520904D0D6
:10155000226803E04FF40033F2E7626A93FAA3F3E0
:10156000B3FA83F303F01F03984002422DD0606862
:1015700020F0030008436060FFF742FE804641F21E
:1015800088390CE04FF00073DAE700BFFFF738FE50
:10159000A0EB0801494502D90320BDE8F087606847
:1015A000696800F00C00B0EB810FEFD1306800F0FB
:1015B0000700B8420BD9306820F00700384330608C
:1015C000306800F00700B84201D00120E5E7287834
:1015D000400705D56068E96820F4E0600843606072
:1015E0002878000706D56068296920F4605040EA31
:1015F000C100606000F06CF86168F02292FAA2F21B
:1016000001F0F001B2FA82F2D140074A515CC840C1
:10161000064908600020FFF713FE0020BDE7000028
:101620000020024000100240084800083C00002052
:101630000F2202600C4A536803F0030343605368AF
:1016400003F0F0038360536803F4E063C3605268FF
:101650004FF4E06303EAD20202610448006800F03C
:1016600007000860704700000010024000200240A0
:1016700008480949006849684FF4E06292FAA2F20A
:1016800001F4E061B2FA82F2D140044A515CC840F0
:10169000704700003C00002000100240184800087D
:1016A00008480949006849684FF4605292FAA2F26A
:1016B00001F46051B2FA82F2D140044A515CC84050
:1016C000704700003C00002000100240184800084D
:1016D000144B10B55A68144802F00C0104291DD0AF
:1016E00008291BD14FF4701494FAA4F402F4701179
:1016F000B4FA84F4E1400D4CDB6A615C0F2494FA87
:10170000A4F403F00F03B4FA84F4E340074C10345C
:10171000D203E35C03D5B0FBF3F0484310BD0448AB
:10172000484310BD0010024000127A00E84700084C
:1017300000093D002DE9F84F040071D02078FB4DE1
:10174000C0074FF0010625D068687704C0F3810018
:10175000012807D06868C0F3810002281BD168689F
:10176000C00318D597FAA7F0B0FA80F040F0200037
:10177000400901D0286800E0686A97FAA7F1B1FA39
:1017800081F101F01F0106FA01F1084265D060689D
:101790000028D2D061E06068B0F5803F0BD010B176
:1017A000B0F5A02F17D0286820F480302860286872
:1017B00020F4802002E0286840F480302860E86A45
:1017C000A16820F00F000843E862606820B3FFF7CB
:1017D00017FD80460AE0286840F480202860EAE788
:1017E000FFF70EFDA0EB0800642872D897FAA7F067
:1017F000B0FA80F040F02000400901D0286800E0F5
:10180000686A97FAA7F1B1FA81F101F01F0106FAAF
:1018100001F10842E4D020E0FFF7F2FC804607E047
:10182000C7E000BFFFF7ECFCA0EB08006428DCD8A1
:1018300097FAA7F0B0FA80F040F02000400901D0FC
:10184000286800E0686A97FAA7F1B1FA81F101F01F
:101850001F0106FA01F10842E4D12078DFF8D082B6
:1018600080074FF0000A4FF0020759D568684FF023
:10187000F80B10F00C0F07D06868C0F38100022845
:101880001BD16868C00318D497FAA7F0B0FA80F0AB
:1018900040F02000400901D0286800E0686A97FA0B
:1018A000A7F1B1FA81F101F01F0106FA01F1084236
:1018B0002BD0206901287CD127E0206988B396FAD3
:1018C000A6F0B0FA80F048F82060FFF799FC814656
:1018D00006E055E1FFF794FCA0EB0900022884D84C
:1018E00097FAA7F0B0FA80F040F02000400901D04C
:1018F000286800E0686A97FAA7F1B1FA81F101F06F
:101900001F0106FA01F10842E4D028689BFAABF205
:101910006169B2FA82F220F0F80091400843286031
:1019200025E0FFE796FAA6F1B1FA81F148F821A087
:10193000FFF766FC814605E0FFF762FCA0EB0900BB
:101940000228CCD897FAA7F0B0FA80F040F0200037
:10195000400901D0286800E0686A97FAA7F1B1FA57
:1019600081F101F01F0106FA01F10842E4D120786B
:1019700000076AD5A069A0B396FAA6F0B0FA80F085
:1019800008EB8000C0F88064FFF73AFC814605E070
:10199000FFF736FCA0EB09000228A0D897FAA7F0C1
:1019A000B0FA80F040F06000B6EB501F02D128681A
:1019B0000CE077E197FAA7F0B0FA80F040F0600011
:1019C000B7EB501F01D1286A00E0686A97FAA7F1C7
:1019D000B1FA81F101F01F0106FA01F21042D7D0ED
:1019E00033E0FFE796FAA6F0B0FA80F008EB80004B
:1019F000C0F880A4FFF704FC814605E0FFF700FC77
:101A0000A0EB090002289CD897FAA7F0B0FA80F062
:101A100040F06000B6EB501F01D128680BE097FA48
:101A2000A7F0B0FA80F040F06000B7EB501F01D192
:101A3000286A00E0686A97FAA7F1B1FA81F101F02B
:101A40001F0106FA01F21042D8D12078400774D560
:101A5000E8694FF00009C00009D4E86940F08050FF
:101A6000E861E8694FF0010900F0805000903148CA
:101A70000168C90512D4016841F480710160FFF763
:101A8000BFFB834606E000BFFFF7BAFBA0EB0B00ED
:101A9000642875D827480068C005F5D5E068012896
:101AA0000AD008B1052811D0286A20F00100286268
:101AB000286A20F0040002E0286A40F00100286251
:101AC000E068C8B3FFF79CFB83460DE0286A40F04E
:101AD00004002862F0E700BFFFF792FBA0EB0B01C8
:101AE00041F2883081424BD897FAA7F0B0FA80F0E3
:101AF00040F04000B6EB501F01D128680BE097FA88
:101B0000A7F0B0FA80F040F04000B7EB501F01D1D1
:101B1000286A00E0686A97FAA7F1B1FA81F101F04A
:101B20001F0106FA01F21042D6D035E00010024043
:101B3000000042420070004000E034E0FFF760FB2C
:101B4000834607E0FFF75CFBA0EB0B0141F2883016
:101B5000814215D897FAA7F0B0FA80F040F0400023
:101B6000B6EB501F01D128680CE097FAA7F0B0FA45
:101B700080F040F04000B7EB501F02D1286A01E02E
:101B800083E0686A97FAA7F1B1FA81F101F01F01C9
:101B900006FA01F21042D5D1B9F1000F03D0E8697D
:101BA00020F08050E861E06980B36968C1F3810189
:101BB000022977D04FF080714F00022809D091FAA6
:101BC000A1F0B0FA80F048F820A0FFF719FB044616
:101BD0005EE050468A4691FAA1F1B1FA81F1C14620
:101BE00048F82100FFF70CFB804605E0FFF708FBF3
:101BF000A0EB0800022848D897FAA7F0B0FA80F0C6
:101C000040F02000400902D0286801E056E0686AF0
:101C100097FAA7F1B1FA81F101F01F0106FA01F17B
:101C20000842E3D1D4E908100843696821F474112B
:101C3000084368609AFAAAF0B0FA80F049F8206088
:101C4000FFF7DEFA044604E0FFF7DAFA001B022889
:101C50001BD897FAA7F0B0FA80F040F020004009B6
:101C600001D0286800E0686A97FAA7F1B1FA81F11B
:101C700001F01F0106FA01F10842E5D01EE000BFA5
:101C8000FFF7BEFA001B022802D90320BDE8F88F37
:101C900097FAA7F0B0FA80F040F02000400902D097
:101CA000286801E00CE0686A97FAA7F1B1FA81F1BF
:101CB00001F01F0106FA01F10842E1D10020E5E739
:101CC0000120E3E7704770477047000030B590F897
:101CD0003C20012A1CD0012280F83C2003685A686D
:101CE0009C680C4DAB4203D122F470054A682A432C
:101CF00022F070050A6889682A4324F08004214391
:101D00005A6002689160002180F83C10084630BD9E
:101D1000022030BD002C014010B5040003D094F81F
:101D20003D0010B107E0012010BD002084F83C0008
:101D3000204600F00DF8022084F83D00211D2068A7
:101D400000F03CFE012084F83D00002010BD0000A2
:101D500008B501681148B1F1804F0BD0104A91428B
:101D600010D1C16941F00201C161C06900F00200F7
:101D7000009008BDC16941F00101C161C06900F076
:101D80000100F5E7074A9142F3D1C16941F0100122
:101D9000C161C06900F01000EAE7000000100240D5
:101DA0000004004000100040022180F83D1001684E
:101DB0000A6842F001020A60012180F83D1000200B
:101DC00070470168CA6842F00102CA600068016891
:101DD00041F001010160002070470168CA6822F0EB
:101DE0000102CA600068016A41F21112114207D172
:101DF000016A9210114203D1016821F001010160D2
:101E00000020704770B5044690F83C00012817D0B8
:101E1000012584F83C50022084F83D002268906837
:101E2000364E304020F47F4090600868502839D00A
:101E30000DDC20285BD005DC98B3102843D153E09B
:101E4000022070BD302855D040283CD141E06028A8
:101E500030D070280CD0B0F5805F03D0B0F5005FB3
:101E600031D112E020688168244A7032114016E0B6
:101E7000CB68D1E90121206800F0E4FD2168886881
:101E8000304040F0770088601DE0CB68D1E9012147
:101E9000206800F0D7FD2068816841F480418160AE
:101EA00011E01EE0CA684968206800F0DDFD50219D
:101EB000206806E0CA684968206800F0E6FD6021F5
:101EC000206800F0C9FD84F83D50002084F83C00F3
:101ED00070BDCA684968206800F0C6FD40212068CE
:101EE000EFE700212068ECE710212068E9E72021D6
:101EF0002068E6E730212068E3E7000088FFFEFF66
:101F0000704770B50446006801694FF00005C94389
:101F1000890715D4C168C943890711D4E91E016135
:101F200001202077206880698007204602D0FFF7D3
:101F3000E7FF04E000F0A7F8204600F0A5F82577B9
:101F400020680169C943490717D4C168C9434907D3
:101F500013D46FF0040101610220207720688069AA
:101F600010F4407F204602D0FFF7CAFF04E000F0E3
:101F70008AF8204600F088F8257720680169C9436F
:101F8000090716D4C168C943090712D46FF00801C4
:101F90000161042020772068C0698007204602D0B4
:101FA000FFF7AEFF04E000F06EF8204600F06CF89A
:101FB000257720680169C943C90617D4C168C94398
:101FC000C90613D46FF01001016108202077206842
:101FD000C06910F4407F204602D0FFF791FF04E073
:101FE00000F051F8204600F04FF82577206801698D
:101FF000C943C90708D1C168C943C90704D1891EAB
:102000000161204600F042F820680169C9430906D1
:1020100009D4C168C943090605D46FF08001016184
:102020002046FFF750FE20680169C943C90509D45D
:10203000C168C943090605D46FF480710161204667
:10204000FFF740FE20680169C943490609D4C16809
:10205000C943490605D46FF040010161204600F0F4
:102060001FF820680169C94389060BD4C168C943B8
:10207000890607D46FF0200101612046BDE8704059
:10208000FFF722BE70BD704770470000006803492B
:10209000884201D1FFF7BAB870470000002C014018
:1020A0007047704710B5040003D094F8690010B170
:1020B00007E0012010BD002084F86800204600F0F1
:1020C00027F8242084F869002068016821F00101C4
:1020D0000160204600F0FAFD0128EBD0606A10B1E3
:1020E000204600F0E4FC2068416821F49041416002
:1020F0002068816821F02A0181602068016841F030
:10210000010101602046BDE8104000F034BD000030
:10211000F0B587B0064614216846FEF7C8F8264990
:102120003068884246D12548816941F48041816107
:10213000816901F480410591416941F400314161B7
:102140004069002400F4003005904FF4C060009016
:102150000220CDE901040720CDE9034069464FF094
:102160009040FEF787FF174D15488027C5E900040A
:10217000C5E9024720202C61C5E905402846EC61ED
:10218000FEF719FF08B1FEF789F975666E620C4813
:102190000D4D143801C5102091C50B4845F8104964
:1021A0006C61AC61EC61FEF706FF08B1FEF776F9F1
:1021B00035666E6207B0F0BD003801400010024085
:1021C00058000240A4050020E805002070B5044630
:1021D00090F86A00202839D1A9B3A2B394F8680016
:1021E000012833D0012084F868006165A4F85820E4
:1021F0000025E566222084F86A00616E14481346C3
:102200008862616E1348C862616E13480863606E2D
:102210004563666D216832462431606EFEF7F2FE3A
:1022200084F868502068016841F48071016020687A
:10223000816841F0010181602068816841F04001BE
:102240008160002070BDFFE70120FBE70220F9E775
:102250001D2C00085B2C0008D32B0008704770472A
:1022600070B5044690F86900202834D181B37AB360
:1022700094F8680001282ED0012084F8680044F802
:102280004C1FA280E28000252562212060776169D1
:1022900012481346886261691148C8626169114831
:1022A00008636069456354F84C6C216806F12802A4
:1022B0006069FEF7A7FE54F84C1C402008622577A1
:1022C00054F84C0C816841F080018160002070BDA1
:1022D000FFE70120FBE70220F9E70000652C00087A
:1022E000952C0008D32B000870477047FEE700B517
:1022F000A1B06846FEF7D4F80146684600F002F83F
:1023000021B000BD70B50C00054623D0A01E81B2DF
:10231000284600F051F9291911F8012C11F8021C76
:1023200002EB012189B2884214D10B49287809783F
:1023300088420FD1687807280CD2DFE800F00B0B39
:102340000B040B0B0800284600F04CF902E028466D
:1023500000F082F9002070BD00000020F0B589B0C7
:10236000002406940794182168460894FDF79FFFFF
:1023700022484FF0A041052701604FF48031C0E9A9
:102380000114C46189114462016389100762012547
:10239000C162C0E903450426C0E90564C0E90D54E3
:1023A000FEF7CCFA06A915480694FEF795F8CDE994
:1023B0000264009501950494694610480594FEF75F
:1023C000F9F802200090019069460C48FEF7F2F8F7
:1023D00003200090019069460848FEF7EBF800964C
:1023E000694606480196FEF7E5F81220CDE9000798
:1023F00069460248FEF7DEF809B0F0BD3001002062
:102400002DE9F04786B014216846FDF750FF3048AB
:10241000416941F400214161416901F400210591C4
:10242000416941F480014161416901F480010591F4
:10243000416941F400314161416901F40031059184
:10244000416941F4802141614069DFF8888000F4EE
:1024500080204FF400540590002221464046FEF7AC
:10246000C9FEDFF874904FF2380600223146484624
:10247000FEF7C0FE4FF410674FF0904A0022394635
:102480005046FEF7B7FE0125CDE900450024029431
:10249000694640460394FEF7EDFD0096CDE90154F0
:1024A000694648460394FEF7E5FD0097CDE90154DF
:1024B000694650460394FEF7DDFDE8038DE83100E0
:1024C00069465046FEF7D6FD06B0BDE8F08700002D
:1024D00000100240000800480004004810B588B011
:1024E00000241248009401940294039404940594E7
:1024F0004FF08041069401601F21C0E901144FF4A0
:102500004871C0E9031480218161FFF705FC4FF495
:102510008050009069460548FFF774FC049404A9B4
:1025200002480694FFF7D2FB08B010BDD00100208E
:1025300010B588B0002413480094019402940394C9
:10254000049405940E49069401601F21C0E901140A
:102550004FF44871C0E9031480218161FFF7DCFB6F
:102560004FF48050009069460648FFF74BFC20204E
:10257000049004A906940348FFF7A8FB08B010BD17
:1025800000040040100200200948084901604FF48F
:1025900016514160002181600C22C160C0E9041223
:1025A0008161C16101624162FFF77CBD0038014079
:1025B00090020020FEE7000070B5094DFF2213468F
:1025C00005F5807606E000BF10F8014B54402A5D07
:1025D0005A40335D491E89B2F6D243EA022070BDEB
:1025E000944500082DE9F041C1788278194C01EB3F
:1025F00002218BB241790079032501EB002082B2E0
:102600001348A4F140070078207003206070500048
:10261000A0700020064609E066556D1CE9B21D1841
:102620007D5D6554491C401CCDB2C0B29042F3D3CD
:1026300029460848FFF7C0FF010A61556D1CE9B241
:102640006054BDE8F041491CC9B2024800F050B8DE
:1026500000000020F000002010B5C1788278114CF5
:1026600001EB02218AB241790079403401EB00206C
:102670000C49130A88540C490978217006216170AD
:10268000A370E270020A227160712046FFF794FF86
:10269000010AA171E0712046BDE81040082100F058
:1026A00027B80000B0000020000000207047090794
:1026B000090E002806DA00F00F0000F1E02080F893
:1026C000141D704700F1E02080F8001470470000EE
:1026D00005480068406805498A68824201D10020A7
:1026E0007047886001207047A40500202400002066
:1026F0000A4610B501460448FFF7B2FD0249202002
:1027000081F8690010BD0000900200202DE9F04121
:10271000012817D0022842D110212248FEF7CDFB14
:10272000214C002540F6FF764FF40077002210215F
:102730001C482368FEF7B4FB206804282AD908380F
:10274000206028E000211948FEF7B7FB1848FFF782
:1027500038FB0025174C4FF480572E4600221146B7
:1027600012482368FEF79CFB142000F065FC2068EB
:10277000B84205D240302060142000F05DFC00E03B
:1027800026606D1CADB2402DE8D3BDE8F04108488D
:10279000FFF723BB26606D1CADB2BD42C6D3BDE8BA
:1027A000F0810000BC01002008000020A8010020EA
:1027B0005002002004000020012251032D48FEF7A2
:1027C00019FD2D497822A1F51470FEF7EDF92B487B
:1027D000FFF7EAFA2A4D4FF090444FF4807845F223
:1027E00010094FF4006A4AF2080B012000F024FCA3
:1027F00000224FF410612046FEF7FCFC00224FF24D
:1028000018012846FEF7F6FC0122464641462046BE
:10281000FEF7F0FC01224F4649462846FEF7EAFC47
:10282000012000F009FC002231462046FEF7E2FCC0
:10283000002239462846FEF7DDFC01225646514665
:102840002046FEF7D7FC01225F4659462846FEF790
:10285000D1FC012000F0F0FB002231462046FEF7BB
:10286000C9FC002239462846FEF7C4FC0A2000F0C5
:10287000E3FBBAE7000800488003002010020020B4
:1028800000040048012000F0D7FBFBE70949802243
:10289000A1F17000FFF79AFC074C00BFFFF718FF8B
:1028A0000028FBD0206900F02BFC0421206900F0F7
:1028B000F9FBF3E7000300200C00002010B55020C6
:1028C00080F31188BFF34F8FBFF36F8F01F0E6FCE9
:1028D00018B104494FF080500860002080F311883F
:1028E00010BD000004ED00E070B596B028216846E8
:1028F000FDF7DDFC14210AA8FDF7D9FC1C210FA867
:10290000FDF7D5FC01252804CDE9005000240294F0
:1029100002260495CDE907604FF4C010099068467F
:10292000FEF708FF0F20CDE90A06A802CDE90C400A
:1029300002210AA80E94FEF7D9FD0FA80F95119455
:10294000FEF710FD16B070BD1448016841F4700127
:1029500001601348016841F0010101604168114ABA
:10296000114041600168104A11400160016821F482
:1029700080210160416821F4FE014160C16A21F0BB
:102980000F01C162016B094A11400163002181609E
:102990000249C003803908607047000088ED00E0FC
:1029A000001002400CC07FF8FFFFF6FECCFC00FFD9
:1029B0000148FFF7A6BA00002C060020F0B5026817
:1029C0001B4B1C4F4FF0804C984203D0604501D008
:1029D000B84203D122F070044A682243164C174DC6
:1029E000174E984209D0604507D0B84205D0A042A2
:1029F00003D0A84201D0B04203D122F44077CA6884
:102A00003A434F6922F080023A4302608A68C26208
:102A10000A688262984205D0A04203D0A84201D041
:102A2000B04201D10969016301214161F0BD00009B
:102A3000002C0140000400400040014000440140DF
:102A40000048014010B5846842EA032224F47F4420
:102A50000A432243826010BD826822F070020A435A
:102A600042F007018160704710B5036A046A24F0E0
:102A700001040462846924F0F00444EA021423F09F
:102A80000A020A438461026210BD10B5036A23F092
:102A9000100303628369046A23F4704343EA023239
:102AA00024F0A00343EA01118261016210BD90F895
:102AB0002410C90706D001684A68836A22F40032EC
:102AC0001A434A6090F82410890706D501684A68BD
:102AD000C36A22F480321A434A6090F824104907EE
:102AE00006D501684A68036B22F480221A434A60C3
:102AF00090F82410090706D501684A68436B22F450
:102B000000421A434A6090F82410C90606D50168AD
:102B10008A68836B22F480521A438A6090F82410EA
:102B2000890606D501688A68C36B22F400521A43ED
:102B30008A6090F82410490611D501684A68036C30
:102B400022F480121A434A60016CB1F5801F06D14D
:102B500001684A68436C22F4C0021A434A6090F844
:102B60002410090606D501684A68806C22F4002208
:102B700002434A607047F8B500260446C666FEF771
:102B80003FFB0546206800686FF07E47000708D5C8
:102B90002B4600224FF400112046009700F03CF92C
:102BA00060B92068006840070AD52B4600224FF420
:102BB00080012046009700F02FF908B10320F8BDEE
:102BC000202084F8690084F86A0084F86860002096
:102BD000F8BD70B5446A94F869000025212808D131
:102BE00020688068000604D5A4F85250204600F002
:102BF00064F894F86A00222808D1206880684006AA
:102C000004D5A4F85A50204600F049F8E06E40F090
:102C10001000E0662046FFF744FA70BD10B501468B
:102C2000406A09680968890614D40021A0F85A107E
:102C300001680A6822F480720A6001688A6822F0DA
:102C400001028A6001688A6822F040028A602021BD
:102C500080F86A10FFF702FB10BD10B5406AFFF75D
:102C6000FEFA10BD10B50146406A09680968890678
:102C70000DD40021A0F8521001688A6822F0800269
:102C80008A600068016841F04001016010BDFFF7F3
:102C90002BFB10BD10B5406AFFF727FB10BD016884
:102CA0000A6822F490720A6001688A6822F00102C0
:102CB0008A60202180F86A10704701680A6822F053
:102CC000C0020A60202180F8691070472DE9F041A8
:102CD000044610202369A268E6691A43636900214B
:102CE00033431A4323680D461E68444F3E40164343
:102CF0001E6022685368E66823F4405333435360F0
:102D0000236AA2691A4323689E6826F43066164334
:102D10009E603B4B22689A4210D13A4B1B6B13F0DA
:102D2000030311D0012B05D0022B05D0032B0CD1AE
:102D300002200AE0042008E0082006E0324B9A4214
:102D400002D0324B9A4200D10020E6694FF4004392
:102D50009E4226D109281DD2DFE800F00508121C8A
:102D6000151C1C1C1800FEF783FC01E0FEF798FC04
:102D70004100606801EB5001B1FBF0F081B20AE064
:102D800023496068F6E7FEF7A3FCF1E74FF48031D2
:102D90006068EFE7012521F00F00C1F3420108430D
:102DA0001CE0092825D2DFE800F005080B241024D8
:102DB00024241C00FEF75CFC09E0FEF771FC06E031
:102DC0001449606801EB50010EE0FEF781FC0146FA
:102DD000606801EB5001B1FBF0F080B22168C8607F
:102DE00008E0606803EB5001B1FBF0F080B2D06006
:102DF00000E001252846BDE8F0810000F369FFEFFF
:102E000000380140001002400044004000480040EB
:102E10000024F40000127A002DE9F041984617468C
:102E20000E460446069D1DE0681C1BD02DB1FEF722
:102E3000E7F9A0EB0800A84214D92068016821F442
:102E4000D07101602068816821F00101816020203B
:102E500084F8690084F86A00002084F86800032080
:102E6000BDE8F0812068C06936EA000004D0002087
:102E7000B842D9D00020F3E70120F9E7FEE702E0ED
:102E800008C8121F08C1002AFAD1704770470020F5
:102E900001E001C1121F002AFBD17047EFF305804A
:102EA000002800D00120704798B0FEF7B7F9FFF76F
:102EB0001BFDFFF7A5FA5548416941F00101416149
:102EC0004069002200F00100159005210B20FEF75B
:102ED00017FA0B20FEF708FA002205210E20FEF754
:102EE0000FFA0E20FEF700FA002205210F20FEF750
:102EF00007FA0F20FEF7F8F9FFF730FA4548444982
:102F00000024016004714471446101218461016203
:102F1000FDF7F4FE3F491594243116943E4817946A
:102F200008600846FDF764FF3A480225002215A90B
:102F30002430CDE91545FDF72FFF3649159438317A
:102F400016943648179408600846FDF751FF31483B
:102F5000002215A9383017951594FDF71DFFFFF7CE
:102F6000E7FAFFF711FB2B481594CC3016942C4947
:102F7000179401601F21C0E901144FF44871C1602A
:102F800080218161FEF7C8FE2248159415A9CC3036
:102F90001794FEF79BFEFFF7A1FA22480022114684
:102FA0000068149014A800F06BF81F4C1D491422FF
:102FB0002061091D6846FDF761F90021684600F0AF
:102FC00047F8184920601422183105A8FDF756F972
:102FD000002105A800F03CF81249606014222C3151
:102FE0000AA8FDF74BF900210AA800F031F80D49B5
:102FF000A060142240310FA8FDF740F900210FA86E
:1030000000F026F8E06000F01EF8FEE70010024035
:10301000003002408401002000740040009800400D
:1030200000100040944700080C00002001460020DA
:10303000842900D0C81C704710B500B9012000F0E9
:103040004BFD002010BD10B500F0B8FD002010BDF4
:103050003EB504460D46B0F90800FFF7E7FF02A9A8
:10306000CDE90001208A2B4682B2D4E9001001F09C
:10307000D5F8012801D000203EBD02983EBD0000D9
:1030800008B500680090012907D0002013460246C9
:10309000012103A001F002FA08BD0120F6E70000BB
:1030A000000000002DE9FC41002507462E46019551
:1030B0000C0000D10124FFF7F1FE009690B101ABA6
:1030C00022460921384601F035FA012812D101982B
:1030D00088B10A494FF080500860BFF34F8FBFF3AB
:1030E0006F8F08E0002322460421384601F022FABF
:1030F000012800D0FF252846BDE8FC8104ED00E052
:103100007CB5002506462C460195FFF7C7FE0094C6
:10311000A0B101AB00220821304601F00BFA0128D2
:1031200001D0FF207CBD019888B10A494FF0805042
:103130000860BFF34F8FBFF36F8F08E000231A467C
:103140000321304601F0F6F9012800D0FF2528467A
:103150007CBD000004ED00E070B5124C0546A66889
:103160002068001D00F0A2FB38B9206890F82C10F0
:1031700001208840E1688143E16020683544B54220
:103180004560216805D2606BBDE87040091D00F004
:10319000ADBB206B091D00F0A9FB606A854200D21F
:1031A000656270BD400000202DE9F041054600F049
:1031B000C1FB2A4C6068401C60602068284F10B139
:1031C000206900B325E025606068012821D1002630
:1031D00006EB860007EB800000F07AFB761C072EDA
:1031E000F6D31F488C3000F073FB1D48A03000F070
:1031F0006FFB1B48B43000F06BFB19488C30206328
:103200001430606305E02068E96AC06A884200D82B
:103210002560206A401C2062E96A0120E26888403B
:103220001043E06001EB810007EB8000291D00F0F6
:1032300075FB00F09FFB206900280CD02068E96A2C
:10324000C06A884207D207494FF080500860BFF338
:103250004F8FBFF36F8FBDE8F0810000400000206A
:10326000C406002004ED00E010B500F063FB0E4C36
:103270002068A0B90D4800F02BFB0C48143000F07A
:1032800027FB0A48E0601430206100220C210A204C
:1032900000F072FD206010B105A100F0E7FBBDE871
:1032A000104000F067BB0000780000208C07002071
:1032B000546D72510000000030B4026C0B46002ABD
:1032C0000BD0C1681144C1604468A14201D30168B8
:1032D000C16030BC1846FCF7D1BF30BC70472DE947
:1032E000F041856B164604460027026CFAB17EB1A8
:1032F000E068FCF7C3FFE168206C091AE16022680E
:10330000914202D26168081AE060022E0DD00EE0F0
:10331000A068FCF7B3FF216CA0680844A060616856
:10332000884204D32068A06001E005B16D1E6D1CC9
:10333000A5633846BDE8F0810F4841F25C214207A1
:1033400005D0C01D0C4A20F00700821A891A0B4ACA
:1033500000230144C2E900030839103A21F00701B3
:1033600011604B600B600B1AC0E9001393604FF0C3
:1033700000405360D0607047B40700209C000020DC
:103380000648074A4FF080510368012BFCD91160B1
:10339000BFF34F8FBFF36F8FF6E70000C406002026
:1033A00004ED00E02DE9F0479A46DDE90974814615
:1033B0006FF00303206B03EB82021044089D20F0A2
:1033C0000706700707D0502080F31188BFF34F8F96
:1033D000BFF36F8FFEE723180A5C83F834200A5C82
:1033E00012B1401C1028F6D34FF0000884F8438037
:1033F000072D00D30625201DE56200F074FA04F1C4
:10340000180000F070FA2461C5F107006462A06141
:10341000C4F8448084F8488052464946304600F05B
:103420002FFA2060002F00D03C60BDE8F08700003C
:1034300030B5114900E011460A688242FBD34B685F
:103440005C18844203D140681844486008464368C9
:103450001C18944209D1084C103C2468A24209D09F
:1034600052681A4442600A6812680260814200D0C1
:10347000086030BD0460F9E79C00002070B50024AE
:1034800041600B4D0061914206D8D11A8269914288
:1034900006D2011D286907E09A4203D2994201D35E
:1034A000012403E0011DE86800F020FA204670BD09
:1034B0007800002010B5044600F03CFAA06B28B15B
:1034C0005FF0000400F056FA204610BD0124F9E731
:1034D00030B587B02B4D4BE00498002848DB069CA4
:1034E000606910B1201D00F0E1F902A800F0B6F803
:1034F000024604980A283BD2DFE800F00505053AA9
:10350000263705053A260598A16903460144204659
:10351000FFF7B4FF00B3616A20468847E0690128DD
:1035200026D1002000900598A16900234218194671
:10353000204600F0FFFF78B9502080F31188BFF3D8
:103540004F8FBFF36F8FFEE70598A06128B18118F8
:1035500013462046FFF792FF0AE0502080F31188BF
:10356000BFF34F8FBFF36F8FFEE7204600F016FAD0
:1035700000231A4604A9286800F022FC0028ABD1D9
:1035800007B030BD780000202DE9FC410F4605460C
:1035900000F04CFB01A800F061F80446019818B156
:1035A00000F01AFFBDE8FC81224EAFB1306900681F
:1035B000A8B30027291B3A46306800F06BFA00F0E8
:1035C0000BFF0028EED11C494FF080500860BFF37C
:1035D0004F8FBFF36F8FE5E7A542EBD800F0FCFEFD
:1035E000F0682746C068C468201D00F05FF9E069F4
:1035F000012810D1A0692B4641193A462046FFF711
:103600003DFF40B100200346014600902A46204677
:1036100000F090FF20B1616A20468847C2E707E0CA
:10362000502080F31188BFF34F8FBFF36F8FFEE7F9
:103630000127BFE77800002004ED00E00648016B99
:10364000096829B1016BC968C96849684162704756
:103650004FF0FF31FAE700004000002070B505464A
:1036600000F016FE064E0446B068844203D200F015
:1036700009F8012000E0002028602046B46070BDF9
:1036800078000020F8B5194D1FE0C068C4680668CE
:10369000201D00F00BF9616A20468847E069012887
:1036A00013D1A0693044B04206D924616060211D65
:1036B000E86800F01BF908E000200346014600908E
:1036C0003246204600F036FF38B1E868016800292C
:1036D000DBD12969C5E90310F8BD502080F31188BA
:1036E000BFF34F8FBFF36F8FFEE70000780000201D
:1036F00008484068401C4FF0500080F3118804D007
:10370000BFF34F8FBFF36F8FFEE7BFF34F8FBFF352
:103710006F8FFEE7A4000020074CE068016841B10C
:10372000C0680021D0F80000FFF72EFFFFF7D0FEA1
:10373000F3E701210020F7E7780000202DE9F041B0
:10374000044600F0F7F894F9455004F1240609E026
:10375000606A48B1304600F005FE08B100F0E2F9B9
:103760006D1E6DB2002DF3DC4FF0FF3684F845601E
:1037700000F000F900F0DEF894F9445004F110076D
:1037800009E0206948B1384600F0ECFD08B100F0CE
:10379000C9F96D1E6DB2002DF3DC84F84460BDE8FC
:1037A000F04100F0E7B800002DE9F04105460027A0
:1037B00000F03CFA314E306808B9FFF7BDFDF06803
:1037C00005424BD1C5B3083568070ED005F0070098
:1037D000C0F108000544680707D0502080F3118825
:1037E000BFF34F8FBFF36F8FFEE72DB37068854235
:1037F00034D82248103001460C6801E020460C46BF
:103800006168A94202D221680029F7D131688C424F
:1038100024D007682168016060680837411B1029BF
:103820000FD96019420708D0502080F31188BFF3E8
:103830004F8FBFF36F8FFEE710E041606560FFF7C9
:10384000F7FD61687068401A7060B268904200D2FB
:10385000B060F06801430020C4E9000100F0BCFD45
:10386000780707D0502080F31188BFF34F8FBFF344
:103870006F8FFEE73846BDE8F08100008C00002025
:1038800010B5031F4FF080741C601B1F21F0010155
:103890001960191F044B0B6014390A60091F6FF07F
:1038A000020244380A6010BDF1360008D0E9013246
:1038B00001699A60D0E901235A604A68824201D1C5
:1038C00082684A60002202610868401E08607047F2
:1038D00000F108014FF0FF32C0E90112C16001613F
:1038E00000210160704700210161704730B50B680D
:1038F0005A1C02D000F1080202E0026904E02246EC
:10390000546825689D42FAD953684B6099608A6073
:10391000516008610168491C016030BD42684A601D
:1039200093688B6093685960916008610168491CD5
:1039300001607047502080F31188BFF34F8FBFF3B1
:103940006F8F0A494868401C486001280CD108481C
:10395000006810F0FF0F07D0502080F31188BFF3EC
:103960004F8FBFF36F8FFEE770470000A400002069
:1039700004ED00E00849486828B1401E486001D1C4
:1039800080F311887047502080F31188BFF34F8F68
:10399000BFF36F8FFEE70000A400002070B5002881
:1039A00027D0144DA0F108046168E868014207D1EE
:1039B000502080F31188BFF34F8FBFF36F8FFEE766
:1039C00022683AB1502080F31188BFF34F8FBFF3C4
:1039D0006F8FFEE78143616000F028F960686968D5
:1039E000084468602046FFF723FDBDE8704000F002
:1039F000F3BC70BD8C00002006484FF47A7100685B
:103A0000B0FBF1F14FF0E020491E41610721016157
:103A1000704700003C00002010B5FCF719FC11496C
:103A200010280ED300F1E02090F8F0030A789042BD
:103A300007D2502080F31188BFF34F8FBFF36F8FF1
:103A4000FEE709480068896800F4E060884207D909
:103A5000502080F31188BFF34F8FBFF36F8FFEE7C5
:103A600010BD0000A40000200CED00E010B5084BD4
:103A7000002200BF53F832401CB1521C082AF9D36F
:103A800010BD43F8321003EBC201486010BD0000C6
:103A90008406002070B515460E460446FFF74AFF1F
:103AA00094F944100020491C01D184F8440094F991
:103AB0004510491C01D184F84500FFF75BFFA06B5E
:103AC00028B92A46314604F1240000F049F820467E
:103AD000BDE87040FFF732BE10B5020014D00F48A9
:103AE000C06A38B1502080F31188BFF34F8FBFF305
:103AF0006F8FFEE700F09AF800211046FFF72CFBCD
:103B000000F06AFC002807D105494FF0805008609A
:103B1000BFF34F8FBFF36F8F10BD00004000002038
:103B200004ED00E001490120886170474000002059
:103B300010B50C4650B1094909681831FFF7D6FE97
:103B40002046BDE810400121FFF706BB502080F35E
:103B50001188BFF34F8FBFF36F8FFEE74000002047
:103B600070B514460D4668B10A4909681831FFF767
:103B7000D5FE0CB14FF0FF3521462846BDE8704018
:103B8000FFF7EABA502080F31188BFF34F8FBFF3DD
:103B90006F8FFEE74000002028B10749CA69026024
:103BA000896841607047502080F31188BFF34F8FC0
:103BB000BFF36F8FFEE70000400000201CB51748E0
:103BC0000024CDE900402346802215A1164800F0CC
:103BD00025FB012803D100F089FC012809D0401CF5
:103BE0001AD1502080F31188BFF34F8FBFF36F8F2E
:103BF000FEE7502080F31188BFF34F8FBFF36F8F24
:103C000006484FF0FF31283841620121016184608C
:103C1000BDE81C4000F040B81CBD0000680000205A
:103C200049444C4500000000813300080248C16A45
:103C3000491CC16270470000400000201448C16A5E
:103C400011B101218161704700218161C168B1FA20
:103C500081F1C1F11F0101EB81020E4951F82230BF
:103C60006BB101EB820101F108034A6852684A60B6
:103C70009A4201D152684A60D16801607047502071
:103C800080F31188BFF34F8FBFF36F8FFEE7000003
:103C900040000020C40600201CB532480168324AAA
:103CA000914207D1502080F31188BFF34F8FBFF3AB
:103CB0006F8FFEE700682C49491E884207D15020CB
:103CC00080F31188BFF34F8FBFF36F8FFEE7274953
:103CD00008780190FF20087008788DF800009DF8A2
:103CE00000009DF8002000F0F000904207D0502026
:103CF00080F31188BFF34F8FBFF36F8FFEE79DF8FE
:103D000000001B4A00F0500010700720906005E092
:103D10009DF800305B008DF80030401E9DF80030AB
:103D20001B06F5D4000200F4E06090600198087072
:103D30000C482030016841F470010160016841F0D5
:103D400070410160FFF758FE00205060FCF746FA12
:103D50000848016841F040410160FCF72FFA00205B
:103D60001CBD000000ED00E071C20F4100E400E066
:103D7000A400002034EF00E070B50E46050013D01B
:103D8000D6B105FB06F04830FFF70EFD040009D060
:103D900004F1480120468EB10160C0E90F560121AF
:103DA00000F0B6F8204670BD502080F31188BFF3B4
:103DB0004F8FBFF36F8FFEE70020E4E70060ECE772
:103DC0002DE9FF4F002683B09B468A46040003D0AE
:103DD000BAF1000F08D011E0502080F31188BFF332
:103DE0004F8FBFF36F8FFEE7206C38B1502080F308
:103DF0001188BFF34F8FBFF36F8FFEE700F03AFAE1
:103E0000DFF808814FF000094FF0805748B9059856
:103E100038B1502080F31188BFF34F8FBFF36F8FFD
:103E2000FEE7FFF787FDA56B1DB351462046E66808
:103E3000FFF742FABBF1000F13D0E660606A50B1A1
:103E400004F1240000F08EFA28B1C8F80070BFF326
:103E50004F8FBFF36F8FFFF78DFD012007B0BDE8D7
:103E6000F08F6D1EA56320690028F4D004F11000C6
:103E7000E8E7059808B11EB106E0FFF77BFD27E0F3
:103E80006846FFF789FE0126FFF774FDFFF7CEFEB7
:103E9000FFF750FD94F94400401C01D184F8449090
:103EA00094F94500401C01D184F84590FFF762FD6C
:103EB00005A9684600F07EF9002820460AD0FFF7E1
:103EC0003DFC00F089FA2046FFF7F4FA0028A8D05C
:103ED0000020C3E7FFF7EEFA90B104F12400059942
:103EE000FFF726FE2046FFF729FC00F075FA0028B0
:103EF00097D1C8F80070BFF34F8FBFF36F8F90E773
:103F00002046FFF71BFC00F067FA8AE704ED00E0AB
:103F100070B50D46040025D0FFF70CFDD4E90F2045
:103F2000216802FB001161600021A1632168A1608A
:103F30000A46D4E90F01401E00FB0121E160214641
:103F40004FF0FF3001F8440F487004F110008DB1BC
:103F5000FFF7BEFC04F12400FFF7BAFCFFF70AFDEF
:103F6000012070BD502080F31188BFF34F8FBFF345
:103F70006F8FFEE721690029F0D000F0F3F90028E7
:103F8000ECD004494FF080500860BFF34F8FBFF36F
:103F90006F8FE3E704ED00E02DE9FF4782B01D4697
:103FA0008A464FF00008040003D0BAF1000F08D091
:103FB00011E0502080F31188BFF34F8FBFF36F8F54
:103FC000FEE7206C38B1502080F31188BFF34F8F8B
:103FD000BFF36F8FFEE7022D0AD1E06B012807D0F7
:103FE000502080F31188BFF34F8FBFF36F8FFEE730
:103FF00000F040F93F4F4FF000094FF0805648B9AC
:10400000049838B1502080F31188BFF34F8FBFF36D
:104010006F8FFEE7FFF78EFCA06BE16B884207D342
:10402000022D05D00498D0B1B8F1000F1AD01EE0CF
:104030002A4651462046FFF752F9616A19B104F148
:10404000240000F08FF920B13E60BFF34F8FBFF323
:104050006F8FFFF78FFC012006B0BDE8F087FFF7F8
:1040600089FC22E06846FFF797FD4FF00108FFF753
:1040700081FCFFF7DBFDFFF75DFC94F94400401C79
:1040800001D184F8449094F94500401C01D184F892
:104090004590FFF76FFC04A9684600F08BF830B13B
:1040A0002046FFF74BFB00F097F90020D4E7FFF71D
:1040B00041FCA06BE16B884213D1FFF75BFC04F17C
:1040C00010000499FFF734FD2046FFF737FB00F09E
:1040D00083F900289ED13E60BFF34F8FBFF36F8FEF
:1040E00098E7FFF747FC2046FFF728FB00F074F93C
:1040F00090E7000004ED00E02DE9F0471F469046F0
:104100008946040003D0B9F1000F08D011E0502017
:1041100080F31188BFF34F8FBFF36F8FFEE7206CE2
:1041200038B1502080F31188BFF34F8FBFF36F8FEA
:10413000FEE7022F0AD1E06B012807D0502080F360
:104140001188BFF34F8FBFF36F8FFEE7FFF764FC5B
:104150005020EFF3118680F31188BFF34F8FBFF328
:104160006F8FA06BE16B884206D3022F04D0002032
:1041700086F31188BDE8F08794F945503A464946E0
:104180002046FFF7ACF8681C04D06D1C84F845503D
:104190000120EDE7606A0028FAD004F1240000F065
:1041A000E1F80028F4D0B8F1000FF1D00121C8F8EF
:1041B0000010EDE770B50D46040017D0F5B1FFF71C
:1041C000B9FB154988682268C9698A4202D06168CA
:1041D00081421BD96168411A2868814216D2401A6F
:1041E00028602046FFF7D8FC002410E0502080F320
:1041F0001188BFF34F8FBFF36F8FFEE7502080F31E
:104200001188BFF34F8FBFF36F8FFEE70124FFF7D5
:10421000B1FB204670BD0000400000202DE9FF5F8B
:104220008346DDE90E87994616468A469000FFF7D9
:10423000BBFA05001AD04C20FFF7B6FA040012D0E2
:1042400025630021CDE90241CDE900874B46324686
:1042500051465846FFF7A6F82046FEF7A5FF012075
:1042600004B0BDE8F09F2846FFF798FB4FF0FF3001
:10427000F6E700000548016919B1C06A18B10020CD
:104280007047012070470220704700004000002066
:104290000148806870470000400000202DE9F0418F
:1042A0002E4C0027E06A40B16069401C6061A06943
:1042B00000B101273846BDE8F081A668761CA660EB
:1042C00013D1206B006838B1502080F31188BFF300
:1042D0004F8FBFF36F8FFEE7206B616B21636063CD
:1042E000E069401CE061FFF7A9F9606ADFF87080BF
:1042F000864209D3206B006880B1206BC068C56816
:10430000686886420DD260622068C06A00EB800156
:1043100058F821000128CAD90127C8E74FF0FF301B
:10432000F1E7281DFFF7C2FAA86A18B105F11800D5
:10433000FFF7BCFAE86A0121E26881401143E160BD
:1043400000EB800108EB8100291DFFF7E7FAE86A1E
:104350002168C96A8842CDD30127CBE740000020FD
:10436000C40600202DE9F041C068C468ACB104F176
:1043700018000746FFF79AFA154DE86A0126A0B122
:1043800039461448FFF7CAFAE06A2968C96A8842C0
:104390001CD90120AE61BDE8F081502080F3118866
:1043A000BFF34F8FBFF36F8FFEE7201DFFF77EFA3D
:1043B000E16AEA6806FA01F01043E86001EB810067
:1043C0000449B43901EB8000211DDBE70020E2E75E
:1043D00040000020780700202DE9F0472C4D0024F4
:1043E0002746E86A38B1FFF7A5FAE86A401EE86296
:1043F000E86A40B146E0502080F31188BFF34F8F48
:10440000BFF36F8FFEE76968224E0120D1B3A6F19A
:10441000B40980463068E8B1F068C46804F1180057
:10442000FFF744FA201DFFF741FAE06AEA6808FA4C
:1044300000F11143E96000EB800109EB8100211DCF
:10444000FFF76CFAE06A2968C96A8842E2D3C5F8C6
:104450001880DFE70CB1FFF7F1F86C6944B146460C
:10446000FFF71CFF00B1AE61641EF9D10020686146
:10447000A86938B10849012738070860BFF34F8F92
:10448000BFF36F8FFFF776FA3846BDE8F08700007C
:10449000400000207807002004ED00E02DE9F047FF
:1044A0000746994616460D462820DDF820A0FFF75E
:1044B0007BF904000ED0B8464F46D1466DB1FEF7E9
:1044C000D3FE04F11801C4F8008081E8E002201D49
:1044D000FFF709FA2046BDE8F087502080F31188E5
:1044E000BFF34F8FBFF36F8FFEE700001CB5FEF7E1
:1044F000BBFE0C48006860B10A490220091DCDE9E5
:104500000001C201002308A10948FFF787FE002827
:1045100007D1502080F31188BFF34F8FBFF36F8F07
:10452000FEE71CBD78000020546D722053766300B6
:1045300019370008FEB51E4613460200089D4FF0CD
:10454000000014D0124C2768002F0FD0CDE90013C3
:104550000292062915DAFFF78DFE02284FF00003BC
:104560000DD0002269462068FFF716FDFEBD5020E1
:1045700080F31188BFF34F8FBFF36F8FFEE72A469A
:10458000F0E70023324669463846FFF7B5FDFEBD29
:104590007800002000C1814001C0804101C08041FD
:1045A00000C1814001C0804100C1814000C1814003
:1045B00001C0804101C0804100C1814000C18140F3
:1045C00001C0804100C1814001C0804101C08041E3
:1045D00000C1814001C0804100C1814000C18140D3
:1045E00001C0804100C1814001C0804101C08041C3
:1045F00000C1814000C1814001C0804101C08041B3
:1046000000C1814001C0804100C1814000C18140A2
:1046100001C0804101C0804100C1814000C1814092
:1046200001C0804100C1814001C0804101C0804182
:1046300000C1814000C1814001C0804101C0804172
:1046400000C1814001C0804100C1814000C1814062
:1046500001C0804100C1814001C0804101C0804152
:1046600000C1814001C0804100C1814000C1814042
:1046700001C0804101C0804100C1814000C1814032
:1046800001C0804100C1814001C0804101C0804122
:1046900000C1814000C0C101C30302C2C60607C7F2
:1046A00005C5C404CC0C0DCD0FCFCE0E0ACACB0B62
:1046B000C90908C8D81819D91BDBDA1A1EDEDF1F92
:1046C000DD1D1CDC14D4D515D71716D6D21213D382
:1046D00011D1D010F03031F133F3F23236F6F73732
:1046E000F53534F43CFCFD3DFF3F3EFEFA3A3BFB22
:1046F00039F9F83828E8E929EB2B2AEAEE2E2FEFD2
:104700002DEDEC2CE42425E527E7E62622E2E32341
:10471000E12120E0A06061A163A3A26266A6A76771
:10472000A56564A46CACAD6DAF6F6EAEAA6A6BABE1
:1047300069A9A86878B8B979BB7B7ABABE7E7FBF11
:104740007DBDBC7CB47475B577B7B67672B2B37301
:10475000B17170B0509091519353529296565797B1
:10476000559594549C5C5D9D5F9F9E5E5A9A9B5BA1
:1047700099595898884849894B8B8A4A4E8E8F4F51
:104780008D4D4C8C448485458747468682424383C1
:10479000418180400F04000844480008B927000800
:1047A0000000000000000000800000002048000819
:1047B0008D280008FDFF00000000000080000000C0
:1047C0002C48000813040008FDFF00000000000052
:1047D000800000003848000885280008FDFF000020
:1047E000000000008000000002030405060708091D
:1047F0000A0B0C0D0E0F101001020304050607082A
:10480000090A0B0C0D0E0F10000000000000000044
:104810000102030406070809000000000102030466
:104820006D795461736B3032000000006D79546112
:10483000736B3033000000006D795461736B30345A
:104840000000000064656661756C745461736B00F0
:104850007048000800000020B00000007E2E000814
:1048600020490008B0000020602100008E2E0008C2
:104870000100000000000000FF0F00000000000029
:104880000000000000000000000000000000000028
:104890000000000000000000000000000000000018
:1048A00001000000100000000000000000127A006B
:1048B00000000000000000000000000000000000F8
:1048C00000000000000000000000000000000000E8
:1048D00000000000000000000000000000000000D8
:1048E00000000000000000000000000000000000C8
:1048F00000000000000000000000000000000000B8
:1049000000000000000000000000000000000000A7
:104910000000000000000000AAAAAAAA00000000EF
:040000050800018965
:00000001FF
